:020000040800F2
:100000008806002029020008310200083302000897
:10001000350200083702000839020008000000001D
:100020000000000000000000000000003B0200088B
:100030003D020008000000003F020008650D0008B6
:10004000430200084302000843020008430200087C
:10005000430200084302000843020008430200086C
:10006000430200084302000843020008430200085C
:10007000430200084302000843020008430200084C
:10008000430200084302000843020008430200083C
:10009000430200084302000843020008430200082C
:1000A000430200084302000843020008430200081C
:1000B000430200084302000843020008430200080C
:1000C00043020008430200084302000843020008FC
:1000D00043020008430200084302000843020008EC
:1000E00043020008430200084302000843020008DC
:1000F00043020008430200084302000843020008CC
:1001000043020008430200084302000843020008BB
:1001100043020008430200084302000843020008AB
:10012000430200084302000843020008430200089B
:10013000430200084302000843020008430200088B
:10014000430200084302000843020008430200087B
:10015000430200084302000843020008430200086B
:10016000430200084302000843020008430200085B
:10017000430200084302000843020008430200084B
:10018000430200084302000800F002F800F03CF8C7
:100190000AA090E8000C82448344AAF10107DA45E2
:1001A00001D100F031F8AFF2090EBAE80F0013F0F8
:1001B000010F18BFFB1A43F001031847EC0C0000B5
:1001C0000C0D0000103A24BF78C878C1FAD8520745
:1001D00024BF30C830C144BF04680C6070470000C1
:1001E0000023002400250026103A28BF78C1FBD840
:1001F000520728BF30C148BF0B6070471FB500F0E1
:100200004EFE1FBD10B510BD00F013FE1146FFF7E6
:10021000F5FF00F0B9FD00F031FE03B4FFF7F2FF87
:1002200003BC00F035FE000009488047094800473C
:10023000FEE7FEE7FEE7FEE7FEE7FEE7FEE7FEE796
:10024000FEE7FEE704480549054A064B70470000F3
:100250004303000889010008880000208806002068
:1002600088020020880200200CB500200190009038
:100270007548006840F480307349086000BF7248D8
:10028000006800F4003000900198401C0190009834
:1002900018B90198B0F5A04FF1D16B48006810F47F
:1002A000003F02D00120009001E000200090009863
:1002B000012845D164484030006840F080506249D0
:1002C000403108606148006840F440405F49086080
:1002D0005D48083000685C490831086008460068DD
:1002E00040F4004008600846006840F4A0500860F0
:1002F0005748091F0860081F006840F08070091FF8
:10030000086000BF5048006810F0007FFAD040F24B
:100310000570504908604C480830006820F0030020
:100320004949083108600846006840F0020008604A
:1003300000BF45480830006800F00C000828F8D1DC
:100340000CBD10B54448006840F470004249086094
:100350003D48006840F001003B49086000203A49F0
:1003600008310860384800683C4908403649086050
:100370003B48091D0860081F006820F48020091F01
:100380000860002030490C310860FFF76DFF4FF026
:10039000006031498039086010BD70B5002000222E
:1003A000022300240221284D08352D6805F00C0099
:1003B00020B1042806D0082834D107E0294D2A4E60
:1003C000356033E0294D284E35602FE01E4D2D1D40
:1003D0002D68C5F380541C4D2D1D2D6805F03F017F
:1003E00054B1224DB5FBF1F5174E361D3668C6F3F4
:1003F000881605FB06F209E01A4DB5FBF1F5124E21
:10040000361D3668C6F3881605FB06F20E4D2D1D07
:100410002D68C5F301456D1C6B00B2FBF3F5124E60
:10042000356003E00F4D104E356000BF00BF064D34
:1004300008352D68C5F303150D4E705D0A4D2D6806
:10044000C540094E356070BD003802400070004064
:1004500019544007003C024088ED00E0FFFFF6FE23
:10046000103000240024F4000000002040787D01BA
:100470000400002010B504469848844208D10121A8
:10048000084600F086FB0021012000F082FB76E0A8
:100490009348844208D10121022000F07AFB002118
:1004A000022000F076FB6AE08E48844208D10121E8
:1004B000042000F06EFB0021042000F06AFB5EE0E7
:1004C0008948844208D10121082000F062FB002104
:1004D000082000F05EFB52E08448844208D10121EC
:1004E000102000F056FB0021102000F052FB46E0E7
:1004F0007F48844208D10121202000F04AFB0021DE
:10050000202000F046FB3AE07A48844208D10121DD
:10051000402000F03EFB0021402000F03AFB2EE09E
:100520007548844208D10121802000F032FB00216F
:10053000802000F02EFB22E07048844208D1012187
:10054000801500F026FB0021A01500F022FB16E02C
:100550006B48844208D10121401500F01AFB0021AC
:10056000601500F016FB0AE06648844207D10121BD
:10057000001500F00EFB0021201500F00AFB10BD55
:10058000F0B50A4600210023002400BF3DE001250C
:1005900005FA01F3156805EA03049C4234D10568A5
:1005A0004F000326BE40B543056015794E00B540A7
:1005B0000668354305601579012D02D01579022DA5
:1005C00016D185684F000326BE40B5438560557936
:1005D0004E00B540866835438560456801268E40EB
:1005E000B5434560456896798E40B6B2354345605F
:1005F000C5684F000326BE40B543C560D5794E009F
:10060000B540C6683543C560491C1029BFD3F0BD4D
:100610004FF6FF7101600021017141718171C1715B
:10062000704708B54FF480320092009A0A43009256
:10063000009AC261C161009AC261C2690092C26936
:10064000009208BD0246002013690B4201D0012030
:1006500000E0002070470146086980B270470246FA
:10066000002053690B4201D0012000E000207047B8
:100670000146486980B270470183704741837047E3
:100680000AB1018300E041837047416170474269CC
:100690004A4042617047F0B5002300244D07ED0E3B
:1006A00002FA05F3CE1000F1200555F826504E074A
:1006B000F70E0F26BE40B543CF1000F1200646F8D6
:1006C0002750CE1000F1200555F8265045EA0304C6
:1006D000CE1000F1200545F82640F0BD0000024094
:1006E0000004024000080240000C024000100240DA
:1006F0000014024000180240001C0240002002408A
:100700000024024000280240F948006840F001003F
:10071000F74908600020F64908310860F44800688D
:10072000F4490840F2490860F348091D0860F3489D
:10073000EF4984310860F0481038091D0860EC4822
:10074000006820F48020EA4908600020E8490C3164
:100750000860E7498C31086070470021E44A921C28
:10076000117011460870704710B501460022002331
:1007700000204A11012A02D1DD4C236808E0022A38
:1007800003D1DB4C7034236802E0D94C7434236805
:1007900001F01F02012494401C4201D0012000E01E
:1007A000002010BD38B5002000900024002500BFB7
:1007B0003120FFF7D9FF05460098401C00900098B3
:1007C000B0F5A04F01D0002DF2D03120FFF7CCFFC3
:1007D00008B1012400E00024204638BD0146002075
:1007E000C34A106820F0F80040EAC100106070476A
:1007F000C349086070470021BD4A70321170117002
:10080000012802D004280AD104E00121B84A70323C
:10081000117005E00521B64A7032117000E000BF8A
:1008200000BF7047B7490860704770B5049C41EA43
:1008300082150126C6EB530645EA0645054345EAFF
:100840000465AB4E361D356070BDAD490866704716
:10085000820142EA0172A64B84331A607047A849AC
:100860008866704710B5830143EA016343EA027367
:100870009F4C8834236010BDA14908677047A04988
:10088000C864704702460020994B0833186820F06E
:10089000EC6042EA01031843954B08331860704737
:1008A00002460020924B0833186820F0784042EA54
:1008B000010318438E4B083318607047014600202F
:1008C0008B4A0832106820F003000843106070471C
:1008D00087480830006800F00C007047014600208F
:1008E000834A0832106820F0F00008431060704717
:1008F000014600207E4A0832106820F4E050084388
:100900001060704701460020794A0832106820F4D0
:10091000604040EAC10010607047F0B5002100223D
:100920000024022500260223714F08373F6807F094
:100930000C0121B1042905D0082937D105E0724FF7
:10094000076036E0714F076033E0694F3F1D3F6835
:10095000C7F38056664F3F1D3F6807F03F036EB1F7
:100960006A4FB7FBF3F7DFF888C10CF1040CDCF831
:1009700000C0CCF3881C07FB0CF40CE0624FB7FB03
:10098000F3F7DFF86CC10CF1040CDCF800C0CCF319
:10099000881C07FB0CF4564F3F1D3F68C7F3014707
:1009A0007F1C7D00B4FBF5F7076002E0564F07603F
:1009B00000BF00BF4E4F08373F6807F0F00109093C
:1009C000534F7A5C0768D7404760494F08373F6804
:1009D00007F4E051890A4E4F7A5C4768D740876038
:1009E000434F08373F6807F46041490B484F7A5C32
:1009F0004768D740C760F0BD002100F44072B2F5EF
:100A0000407F0AD13A4A0832116821F4F811414A6C
:100A100002401143364A08321160354A703212687A
:100A2000C0F30B031A43324B70331A6070473549D9
:100A30004439086070473349403908607047364987
:100A40000860704701460020294A8C32106820F463
:100A5000401008431060704701460020244A8C3241
:100A6000106820F4400008431060704701460020E1
:100A70001F4A8C32106820F01F004A1E10431C4A87
:100A80008C321060704701460020194A8C32106881
:100A900020F4F8504A1E40EA0220154A8C321060B9
:100AA000704701460020124A8C32106820F4403012
:100AB00008431060704719490860704739B10C4A03
:100AC0003032126802430A4B30331A6006E0084A9B
:100AD000303212688243064B30331A607047F9B1E6
:100AE000034A343212680243014B34331A601CE06B
:100AF00000380240FFFFF6EA1030002400300020EA
:100B000000004742800E47420024F40040787D01F7
:100B100014000020FFFCFF0F5C014742E011474238
:100B20008F4A126882438E4B1A60704739B18C4AE3
:100B3000121D126802438A4B1B1D1A6006E0884A88
:100B4000121D12688243864B1B1D1A60704739B113
:100B5000834A0C3212680243814B0C331A6006E060
:100B60007F4A0C32126882437D4B0C331A60704707
:100B700039B17B4A103212680243794B10331A6044
:100B800006E0774A103212688243754B10331A60C0
:100B9000704739B1724A243A12680243704B243BC1
:100BA0001A6006E06E4A243A126882436C4B243B7A
:100BB0001A60704739B16A4A203A12680243684B9A
:100BC000203B1A6006E0664A203A12688243644B72
:100BD000203B1A60704739B1614A1C3A12680243DF
:100BE0005F4B1C3B1A6006E05D4A1C3A1268824368
:100BF0005B4B1C3B1A60704739B1594A143A126872
:100C00000243574B143B1A6006E0554A143A1268E7
:100C10008243534B143B1A60704739B1504A103A23
:100C2000126802434E4B103B1A6006E04C4A103AE1
:100C3000126882434A4B103B1A60704739B1484AE8
:100C40001C3212680243464B1C331A6006E0444AC9
:100C50001C3212688243424B1C331A60704739B110
:100C60003F4A2032126802433D4B20331A6006E0AF
:100C70003B4A203212688243394B20331A60704756
:100C800039B1374A243212680243354B24331A6093
:100C900006E0334A243212688243314B24331A600F
:100CA000704739B12E4A2C32126802432C4B2C3338
:100CB0001A6006E02A4A2C3212688243284B2C33F1
:100CC0001A60704739B1264A303212680243244B09
:100CD00030331A6006E0224A303212688243204BD9
:100CE00030331A607047012808D11D493C3109682A
:100CF00041F008011A4A3C32116007E018493C31C2
:100D0000096821F00801164A3C321160704739B178
:100D1000134A273A12780243114B273B1A7006E018
:100D20000F4A273A127882430D4B273B1A707047BF
:100D30000B484030006840F080700949403108603D
:100D4000704701460020064A283A12680A4201D03C
:100D5000012000E0002070470149263908707047E3
:100D6000343802402C480088002804DD2A480088D6
:100D7000401E2949088070472749088000BF26493E
:100D800009880029FBD170471CB501210820FFF715
:100D900095FE224800684FF47A72B0FBF2F1481ECB
:100DA000B0F1807F00D31BE0481E4FF0E02250617D
:100DB00050170F22002807DA13071D0E184B00F0FA
:100DC0000F04241F1D5503E013071C0E154B1C5464
:100DD00000BF00204FF0E02290610720106100BFAB
:100DE0004FF47040009001208DF8040000208DF831
:100DF00005008DF806008DF8070069460A48FFF7E0
:100E0000BFFB08E04FF470410748FFF740FC4FF488
:100E1000FA70FFF7B1FFF5E7240000200000002082
:100E200018ED00E000E400E0000C0240704770475D
:100E30007047754600F028F8AE46050069465346EF
:100E400020F00700854618B020B5FFF7FBF9BDE894
:100E500020404FF000064FF000074FF000084FF021
:100E6000000B21F00701AC46ACE8C009ACE8C009B2
:100E7000ACE8C009ACE8C0098D4670470446AFF342
:100E800000802046FFF7C9F900487047280000207D
:100E900001491820ABBEFEE72600020070474FF064
:100EA0004070E1EE100A7047C80E000800000020F4
:100EB00028000000C4010008F00E000828000020EF
:100EC00060060000E0010008006CDC020000000089
:100ED00000000000010203040607080900000000EA
:100EE00001020304010203040607080900000000D0
:040000050800018965
:00000001FF
