:020000041A00E0
:10000000C8070010A103001AA903001AAB03001AC5
:10001000AD03001AAF03001AB103001A5A5A5A5A14
:10002000000000000000000000000000B303001A00
:10003000B503001A00000000B703001AB903001A44
:10004000BB03001ABB03001ABB03001A0000000028
:10005000BB03001ABB03001ABB10001ABB03001A33
:10006000BB03001ABB03001ABB03001ABB03001A30
:10007000BB03001ABB03001ABB03001ABB03001A20
:10008000BB03001ABB03001ABB03001ABB03001A10
:10009000BB03001ABB03001ABB03001ABB03001A00
:1000A000BB03001ABB03001ABB03001ABB03001AF0
:1000B000BB03001ABB03001ABB03001ABB03001AE0
:1000C000BB03001ABB03001ABB03001ABB03001AD0
:1000D000BB03001ABB03001ABB03001ABB03001AC0
:1000E000BB03001ABB03001ABB03001ABB03001AB0
:1000F00000000000BB03001ABB03001ABB03001A78
:1001000000000000BB03001ABB03001ABB03001A67
:10011000BB03001A00000000000000000000000007
:1001200000000000000000000000000000000000CF
:1001300000000000000000000000000000000000BF
:1001400000000000000000000000000000000000AF
:10015000000000000000000000000000000000009F
:10016000000000000000000000000000000000008F
:10017000000000000000000000000000000000007F
:10018000000000000000000000000000000000006F
:10019000000000000000000000000000000000005F
:1001A000000000000000000000000000000000004F
:1001B000000000000000000000000000000000003F
:1001C000000000000000000000000000000000002F
:1001D000000000000000000000000000000000001F
:1001E000000000000000000000000000000000000F
:1001F00000000000000000000000000000000000FF
:1002000000000000000000000000000000000000EE
:1002100000000000000000000000000000000000DE
:1002200000000000000000000000000000000000CE
:1002300000000000000000000000000000000000BE
:1002400000000000000000000000000000000000AE
:10025000000000000000000000000000000000009E
:10026000000000000000000000000000000000008E
:10027000000000000000000000000000000000007E
:10028000000000000000000000000000000000006E
:10029000000000000000000000000000000000005E
:1002A000000000000000000000000000000000004E
:1002B000000000000000000000000000000000003E
:1002C000000000000000000000000000000000002E
:1002D000000000000000000000000000000000001E
:1002E000000000000000000000000000000000000E
:1002F000000000000000000000000000FFFFFFFF02
:1003000000F002F800F03CF80AA090E8000C8244EB
:100310008344AAF10107DA4501D100F031F8AFF2C8
:10032000090EBAE80F0013F0010F18BFFB1A43F0D3
:10033000010318474813000068130000103A24BF57
:1003400078C878C1FAD8520724BF30C830C144BF3A
:1003500004680C607047000000230024002500267C
:10036000103A28BF78C1FBD8520728BF30C148BF18
:100370000B6070471FB500F00CFF1FBD10B510BD1E
:1003800000F0D0FE1146FFF7F5FF00F0ADFE00F0E3
:10039000EEFE03B4FFF7F2FF03BC00F0F3FE000033
:1003A0000948804709480047FEE7FEE7FEE7FEE709
:1003B000FEE7FEE7FEE7FEE7FEE7FEE70448054945
:1003C000054A064B70470000E103001A0103001ABA
:1003D000C8010010C8070010C8030010C8030010AF
:1003E0000849094A10460A60084A094B1A60B0F1E8
:1003F000E05F06D1074A126842F40022064BC3F8B8
:100400000022704708ED00E00000001A00D8B8058F
:1004100000000010005200400050004030B5F74C82
:10042000646814F0020F0BD0F44C646804F0080404
:1004300094F0080404D04FF40044F14D2C6002E025
:100440000024EF4D2C60EF4C646C04F0020494F037
:10045000020414D0EB4C246C14F0010F0FD0E94CC3
:10046000646CC4F30362E64C54F82240E54D6D6CB5
:10047000C5F307456D1C6C43E14D6C6202E000243E
:10048000DF4D6C620C2020E0DF4C34F91010DD4CA5
:100490000C5D04F0020494F0020411D0D94C0C5904
:1004A000C4F30362D74C0C5BC4F387035B1CD44CCE
:1004B00054F82240B4FBF3F4D14D45F8204003E05A
:1004C0000024CF4D45F82040401C1028DCD930BD19
:1004D00030B50346102B01DD032030BD07292FDB8B
:1004E00025292DDCC3EB031000EB4000C74D284449
:1004F000405C18B3C44830F91320501C0BD01029AD
:1005000009DC072907DBBF481058C0F303608842A5
:1005100001D10120E1E7BC4830F91120501C01D184
:100520000220DAE7B748145824F07064C01440EA97
:1005300003600443B34814500020CEE70320CCE707
:100540000220CAE72DE9F04104460F46F4B95FB135
:10055000AA48406820F00C00A84948600846406856
:1005600040F0030048600AE0A448406820F003001F
:10057000A24948600846406840F0080048600026EC
:1005800000E0761CA2488642FBDB61E0022C06D12B
:100590000323102200210C2000F03EFC58E0032C25
:1005A00006D1002310221321012000F035FC4FE07A
:1005B000042C4DD0052C4BD0062C14D137B99148C2
:1005C000806940F001008F49886105E08D488069AD
:1005D00020F001008B498861002600E0761C8C48E1
:1005E0008642FBDB34E0884830F91450681C02D1A5
:1005F0000220BDE8F08137B98248285840F0010058
:100600008049685024E07F48285820F001007D4947
:100610006850072C05D100BF7A48C06910F0010F5F
:10062000FAD0082C05D100BF7648C06A10F0010F3F
:10063000FAD0092C0CD100BF7248006C10F0010FE9
:10064000FAD07048006C10F0010F01D100BFFEE736
:100650000020CEE7F0B50246002400250023012645
:100660006848406CC0F30367654850F82710514351
:10067000541E6448406CDFF89CC100EA0C00DFF8AF
:1006800084C1CCF84400644881421AD201E05B1C6A
:10069000760070004843DFF880C16045F7D320043E
:1006A00040EA053040EA032040F04000DFF854C142
:1006B000DCF844C040EA0C00DFF848C1CCF8440044
:1006C00016E05648814211D2200440EA053040EA43
:1006D000032040F0C000DFF82CC1DCF844C040EA41
:1006E0000C00DFF820C1CCF8440001E00420F0BD8C
:1006F0000020FCE701464A48814206D24148806911
:1007000020F004003F4A90610BE04648814206D247
:100710003C48806940F004003A4A906101E00520BD
:100720007047374881610020FAE710B53E48FFF76F
:10073000E1FF01210620FFF705FF09210620FFF751
:10074000C7FE0620FFF786FF01210920FFF7FAFE0A
:1007500015210920FFF7BCFEFFF760FE002010BD49
:100760000146A1F1110014286AD2DFE800F0681EEA
:10077000692319146969690F0A696963413C373251
:100780002D282A48406800F001007047274840683B
:10079000C0F34000F9E725484068C0F38000F4E763
:1007A00022484068C0F3C000EFE720484068C0F32B
:1007B000C010EAE71D484068C0F30020E5E71C4888
:1007C0004068C0F34000E0E719484068C0F380008B
:1007D000DBE717484068C0F3C000D6E7144840681C
:1007E000C0F30010D1E712484068C0F34010CCE7D6
:1007F0000F484068C0F38010C7E721E00030044094
:1008000004000010000005409C11001AF611001AA7
:1008100040420F003DCC00FF005F4C0900D0121396
:10082000C0E1E40040787D01001BB70000100540E6
:1008300000200540FB484068C0F3C010A5E700E079
:1008400000BF00BF0020A0E770B504460D46262C6F
:1008500003DB002C01DC042070BD002D7ED104EBF5
:100860008400F14901EB4000408848B304EB840068
:1008700001EB40004088ED490844007910F0010F79
:100880001ED004EB8400E84901EB40004088E749B2
:10089000405820F0010004EB8401E34A02EB4101DF
:1008A0004988E24A885000BF04EB8400DE4901EB2E
:1008B00040004088DD490844007910F0010FF3D171
:1008C00004EB8400D84911F810002D280FD004EB58
:1008D0008401D54A12F81100FFF742FF38B904EB42
:1008E0008401D14A12F811000021FFF72BFE04EB1E
:1008F0008400CD4901EB4000C08848B304EB84007C
:1009000001EB4000C088C9490844007910F0010F8C
:100910001ED004EB8400C44901EB4000C088C349E9
:10092000405820F0010004EB8401BF4A02EB410172
:10093000C988BE4A885000BF04EB8400BA4901EB65
:100940004000C088B9490844007910F0010FF3D184
:1009500004EB8400B44901EB400000E016E00079AC
:100960002D2812D004EB8401AF4A02EB4101087933
:10097000FFF7F6FE002808D104EB8401AA4A02EB37
:10098000410108790021FFF7DDFD9AE004EB8400C6
:10099000A54911F810002D2813D004EB840011F89C
:1009A0001000A34931F91000A049405C10F0010F7C
:1009B00007D004EB84019C4A12F811000121FFF7D3
:1009C000C1FD04EB8400984901EB4000408848B326
:1009D00004EB840001EB400040889449084400790E
:1009E00010F0010F1ED104EB84008F4901EB400091
:1009F00040888E49405840F0010004EB84018A4A47
:100A000002EB41014988894A885000BF04EB840009
:100A1000854901EB4000408884490844007910F082
:100A2000010FF3D004EB84007F4901EB4000007913
:100A30002D2815D004EB840001EB400000797C499F
:100A400031F910007949405C10F0010F08D004EB37
:100A50008401754A02EB410108790121FFF772FD1B
:100A600004EB8400704901EB4000C08848B304EBFC
:100A7000840001EB4000C0886C490844007910F004
:100A8000010F1ED104EB8400674901EB4000C088D0
:100A90006649405840F0010004EB8401624A02EBD1
:100AA0004101C988614A885000BF04EB84005E4957
:100AB00001EB4000C0885D490844007910F0010F47
:100AC000F3D004EB8400584901EB4000007A48B1B0
:100AD00004EB8401544A02EB4101087A2946FFF7EE
:100AE000B3FEB9E60020B7E60146262903DB00295C
:100AF00001DC0420704701EB81004B4B03EB40000D
:100B000000792D282FD001EB810003EB4000007904
:100B1000474B33F91000454BC058C0F3036201EB5B
:100B20008100414B03EB40000079414B33F9100049
:100B30003E4BC05C10F0010F01D00020DAE701EB62
:100B40008100394B03EB4000C088D8B301EB810032
:100B500003EB4000C088354B1844007910F0010FBA
:100B600031D10020C6E701EB81002F4B13F81000B4
:100B70002F4B33F910002D4BC05C10F0010F01D04A
:100B80000020B7E701EB8100274B13F81000284B3A
:100B900033F91000254BC058C0F3036201EB81000C
:100BA000214B03EB4000408860B101EB810003EB77
:100BB000400040881D4B1844007910F0010F02D10D
:100BC000002097E7FFE71B4850F8220092E710B596
:100BD00002460C460C2A14DB102A12DC144830F9A9
:100BE0001210481C01D1022010BD10480B5823F4EC
:100BF0007F73601EC0B243EA80030C480B50002094
:100C0000F2E70220F0E70948006A40F001000749D6
:100C10000862094888620948486209480862002059
:100C20007047000000200540F414001A0000054041
:100C30009C11001A0400001062202000FA7F1604A4
:100C40001C00000641484249086342484863424844
:100C500088634248086300BF3D48C06A10F0010F36
:100C6000FAD000207047F0B504460D46164640F213
:100C7000FF114FF4000040EA04600843DFF8D0C0E1
:100C8000CCF8140000BF3248406910F4000FFAD1CC
:100C9000002300E05B1C42F210708342FADB2C4818
:100CA0004069C0F34D2212B94FF0FF30F0BDB2F5EC
:100CB000007F08D326484069C0F3080040F2FF1CBB
:100CC000ACEB00011EE000BF491E4FF4000040EAFB
:100CD00004600843DFF878C0CCF8140000BF1C485B
:100CE000406910F4000FFAD1002300E05B1C42F2CF
:100CF00010708342FADB16484069C0F34D279742D3
:100D0000E2D0491C2A6031600020CFE7FFB50546DC
:100D10000C4616461F46102D01DC102C02DD042067
:100D200004B0F0BD01AA03A92846FFF79CFF6A465C
:100D300002A92046FFF797FF0099039848433060C7
:100D4000DDE90101484338600020E9E701000006C1
:100D500000000540D3343E020EF003001060000690
:100D600010B53AB1294B53F820300B43274C44F8C7
:100D7000203006E0254B53F820308B43234C44F8B9
:100D8000203010BD224A42F820107047204A80329D
:100D900042F82010704701461E4850F82100704765
:100DA00070B504460D461646324629462046FFF7E2
:100DB000D7FF70BD10B503460C4621461846FFF715
:100DC000E1FF10BD10B503460C4621461846FFF75B
:100DD000DDFF10BD00B502461046FFF7DCFF00BD89
:100DE00010B54AB1094B803353F820300B43074C00
:100DF000803444F8203008E0044B803353F820302E
:100E00008B43024C803444F8203010BD00600F400A
:100E100000620F4000610F40F0B5074DD618C701C2
:100E20004FF0040C0CFB0174E71704EB9777BF102D
:100E300045F82760F0BD00000060084010B5A348E9
:100E4000D0F81C0138B901211820FFF7FDFC012062
:100E50009E49C1F81C0110BD10B59C48D0F81C017A
:100E600038B900211820FFF7EFFC00209749C1F89E
:100E70001C0110BD70B5044600204FF040252D68C0
:100E800045F006054FF04026356000BF4FF0402585
:100E90002D6815F0040FF9D12AE00B46B3F5805FF9
:100EA00001D94FF48053C91A884D2D1D05EB00154B
:100EB0006B6004EB0036854D2D1D05EB0015AE6013
:100EC000834A08B942F0080211B942F0040201E075
:100ED00042F002027D4D2D1D461C05EB061605EB6A
:100EE0000015EE60794D2D1D05EB00152A60401CA4
:100EF0000029D2D1754D2D1D764E356070BD0CB5D3
:100F00000246322001904FF04020816242F00040C2
:100F10004FF04023D8620FE0019810F0010F02D08B
:100F20003220009002E044F25060009000BF009830
:100F3000401E00900128FADC0198401E019005D067
:100F40004FF04020C06A10F0004FE5D10198012811
:100F500001DA01200CBD0020FCE74FF04021096BB5
:100F600001604FF04021496B41604FF04021896B97
:100F700081604FF04021C96BC160704730B50446B5
:100F80005248D0F81801A04200D130BD4F48D0F8E7
:100F90001401B0FBF4F0801C45084C48C0F818411F
:100FA0004FF040208068A84204D14FF040200069F3
:100FB00000B1EAE700204FF040210861C86000213D
:100FC0004548FFF79CFF4FF04020856000214248D4
:100FD000FFF795FF01204FF04021086100213E48B6
:100FE000FFF78DFF00BFD0E74FF04020006D10F0FD
:100FF000010F01D0002070470120FCE74FF0402096
:10100000406D10F0010F01D0012070470020FCE777
:1010100020B101214FF04022516003E000214FF048
:1010200040225160704720B101214FF0402291676A
:1010300003E000214FF04022916770474FF04021BC
:10104000C861704710B5044614B1FFF705FF01E011
:10105000FFF7F4FE10BD70B505460C461B48C0F8FE
:1010600014510460FFF7EAFE01201C4908604FF0AC
:1010700007004FF04021086000BF4FF0402000689B
:1010800010F0070FF9D116484FF0402108600020FA
:101090004862401E486448611248C8644FF4C870F2
:1010A0000E4908604FF000004FF040210861C86011
:1010B00070BD10B5FFF7D0FE10BD10B54FF0402247
:1010C000506C024A1168884710BD000048000010AB
:1010D0001000008088400040002020008040004038
:1010E0001000000210000F10042300220121032031
:1010F000FFF792FE0423002202210320FFF78CFE5B
:10110000012206210520FFF72BFE02210520FFF713
:1011100039FE04210520FFF735FE00BFFEE77047CA
:1011200070477047754600F029F8AE4605006946DD
:10113000534620F00700854618B020B5FFF73EF96A
:10114000BDE820404FF000064FF000074FF00008C8
:101150004FF0000B21F00701AC46ACE8C009ACE849
:10116000C009ACE8C009ACE8C0098D467047044628
:10117000AFF300802046FFF70CF9000000487047ED
:101180006801001001491820ABBEFEE726000200EE
:1011900070474FF04070E1EE100A7047FFFFFFFF0D
:1011A000FFFFFFFFFFFFFFFF18002000300044009B
:1011B000FFFFFFFF48004C005000540058005C0047
:1011C0006000640068006C007000FFFF78007C0025
:1011D0008000840088008C009000940098009C009F
:1011E000A000A400A800AC00FFFFFFFFFFFFFFFF6F
:1011F000C000C400C80000000000000000010101A0
:1012000000000101010101000001010101000101D3
:1012100001010101010101010101010100000000C2
:1012200001010100000000000000010101000001B7
:1012300001010101010001010101000101010101A0
:101240000101010101010101010000000001010192
:101250000000000000000001010100000101010187
:101260000100000101010100010101010101010171
:101270000101010101010000000001010100000065
:101280000000000001010100000101010101000056
:10129000010101010001010101010101010101013F
:1012A0000101010000000001010100000000000038
:1012B0000001010100000101010101000001010123
:1012C000010001010101010101010101010101010F
:1012D000000000000101010000000000000000000B
:1012E00000000000000000000000010000000000FD
:1012F00000000000000000000000000001000000ED
:1013000000000000000000000000000101010000DA
:1013100001010101010000010101010001010101C0
:1013200001010101010101010101000000000101B1
:1013300001000000000000000000010000010000AA
:10134000000000010001000000000000000000009B
:10135000000000000000010000000000010100008A
:101360000000000000000001000001010101010077
:10137000000101010100010101010101010101015F
:101380000101010100000000010101000000000056
:101390000000010100000001010101010000010144
:1013A000010100010101010101010101010101012E
:1013B0000100000000010101000000000000000029
:1013C000000000000000000000000000000000001D
:1013D000000000000000000000000000000000000D
:1013E00000000000000000000000000000000000FD
:1013F00000000000000000000000000000000000ED
:1014000000000000000000000000000000000000DC
:1014100000000000000000000001010100000001C8
:1014200001010100000101010100010101010101AF
:1014300001010101010101010000000001010100A1
:101440000000000000000101010000000000000099
:10145000000001010101000101010101010101017F
:101460000101010101000000000101010000000074
:101470000000000101010000000000000000000168
:10148000010101000101010101010101010101014D
:101490000101000000000101010000000000000047
:1014A0000101010000000000000000000101010135
:1014B000000101010101010101010101010101001E
:1014C0000000000101010000000000000001010116
:1014D0000000000000000000000101010100010106
:1014E00001010101010101010101010100000000F0
:1014F000010101001B0018112D00000000001B005D
:1015000020112D0000000000150060142D000000C7
:1015100000001A0000122D00000000001B00001146
:101520002D00000000001B0028112D00000000000D
:10153000150038152D00000000001B0010112D00B3
:1015400000000000150040142D00000000001500F0
:101550003014150078140000150020141800000045
:101560000B002D00000019000000000015001014F1
:101570002D00000000001A0010122D0000000000D5
:101580001B0008112D00000000001A0018122D0089
:1015900000000000150018141C00000000001500D9
:1015A00048142D0000000000150000142D0000005C
:1015B00000001A0008122D0000000000150030166F
:1015C0002D0000000000150000162D000000000096
:1015D000150068142D0000000000150030152D00C6
:1015E00000000000150038141E000028000015003F
:1015F0000814160000130000150018151F0000271E
:1016000000001500281620000026000015002015F7
:101610002D0000000000150028152D00000000001E
:10162000150018162D0000000000150020162D00D2
:10163000000000001500081521000025000015001D
:1016400010152200002400001500081623000023B6
:1016500000001500101624000022000015002814B8
:10166000120000180000150070141400001900008A
:101670001500001511000000000000009C16001A63
:1016800000000010480000003C03001AE416001A95
:1016900048000010800700005803001A001BB70024
:1016A00000000000001BB700000000000000000068
:1016B00000000000000000000000000000389C1C3A
:1016C000000000000000000000000000000000001A
:1016D000000000000000000000000000000000000A
:0416E0000000000006
:040000051A0003A139
:00000001FF
